:020000040800F2
:10000000984D002015290008E5040008E7040008C1
:10001000EB040008EF040008F304000800000000EF
:10002000000000000000000000000000F7040008CD
:10003000F904000800000000FB040008FD040008AB
:100040002F2900082F2900082F2900082F29000830
:100050002F2900082F2900082F2900082F29000820
:100060002F2900082F2900082F2900082F29000810
:100070002F2900082F2900082F2900082F29000800
:100080002F2900082F2900082F2900082F290008F0
:100090002F2900082F2900082F2900082F290008E0
:1000A0002F2900082F2900082F2900082F290008D0
:1000B000DD0A00082F2900082F2900082F29000831
:1000C0002F2900082F2900082F2900082F290008B0
:1000D0002F290008A10F00082F2900082D10000863
:1000E0002F2900082F2900082F2900082F29000890
:1000F0002F2900082F2900082F2900082F29000880
:100100002F2900082F2900082F2900082F2900086F
:100110002F2900082F2900082F2900082F2900085F
:100120002F2900082F2900082F2900082F2900084F
:1001300000F002F800F053F80AA090E8000C8244A6
:100140008344AAF10107DA4501D100F048F8AFF283
:10015000090EBAE80F0013F0010F18BFFB1A43F0A5
:1001600001031847DCD80000FCD80000103A24BF77
:1001700078C878C1FAD8520724BF30C830C144BF0C
:1001800004680C607047000000230024002500264E
:10019000103A28BF78C1FBD8520728BF30C148BFEA
:1001A0000B607047662909F01886642907F0C0863D
:1001B000782907F0F986002070471FB508F040FB4A
:1001C00004000020002109F09DF8401C6060002020
:1001D000002109F0ADF8E0601FBD10B510BD08F0BA
:1001E00033FC1146FFF7E9FF00F0C4F808F051FCBA
:1001F00003B4FFF7F2FF03BC00F078FE10B541F640
:100200001F41092000F04CFB4FF4165000F01FFF77
:1002100023215C4808F026F805F04EF906F0D6FCDC
:1002200010BD10B500F0F8FD01F003FD00F082FDF7
:1002300002F059FB00F0A1FD4FF4A06002F08AFB30
:100240004FF4E13000F060FE00F0BFFA00F0CAFAAF
:10025000FFF7D4FF10BD1CB54BA007F021FE55A041
:1002600007F01EFE5D4803885D48028800210846AD
:1002700001F03AFD02F0CBFA00245AA1204601F029
:10028000F6FF02F0C4FAC4885EA1204601F0EFFF39
:1002900002F0BDFAC08800EB80004004040C5FA1AE
:1002A000204601F0E4FF02F0B2FAC08800EB400102
:1002B00001EBC00084B260A1204601F0D8FF02F03B
:1002C000A6FAC08800EB40008004040C61A120461F
:1002D00001F0CDFF002063A120231A46CDE90010D4
:1002E000D821184602F098F91CBD70B505F039F810
:1002F000244806F041FF4FF4784002F097FA0020BE
:1003000000F08BFA0446022C11D159A007F0C8FD69
:10031000142000F0BEFD02F07AFAC0884004050CFB
:100320005BA1284601F0A3FF022006F075FD032C17
:100330001FD15EA007F0B4FD02F069FAC088400446
:10034000050C284602F078FA02F061FAC08800EB4A
:10035000400085B2284602F06FFA02F058FAC088D1
:100360004004050C58A1284601F081FF002006F04A
:1003700053FD70BDFFF755FFFFF76DFF01E0FFF77D
:10038000B4FFFCE7584500202D2D2D2D2D2D2D2DB2
:10039000BBFAD6C7D4C620494F542D4C454420BF84
:1003A000D8D6C6CAB5D1E92D2D2D2D2D2D2D2D2D0B
:1003B0002D0D0A004B4559313A4169724C696E6BFB
:1003C00020C1ACBDD3C4A3CABD09204B4559323AA4
:1003D000B8B4CEBB0D0A0D0A000000005200002088
:1003E000500000202D2D2D2D2D2DBBFAD6C7D4C6A3
:1003F00020494F542DD6C7C4DCBCD2BED32D2D2DE1
:100400002D2D00004B4559313AC1ACBDD35749465B
:1004100049204B4559323AB8B4CEBB00D5FDB3A301
:10042000B7B6CEA7A3BA32302D3335A1E62020359A
:10043000302D3735255248006465637265617365F8
:1004400028BCF5292C696E63726561736528BCD37D
:1004500029000000B4A6C0EDCEC2CAAAB6C8D7B45F
:10046000BFF63A004E6F20776F726B2100000000DC
:100470005749464920BDF8C8EB204169724C696E66
:100480006B20C1ACBDD3C4A3CABD0D0A00000000DF
:100490005749464920BDF8C8EB204169724C696E46
:1004A0006B20C1ACBDD3C4A3CABD000057494649A7
:1004B00020B8B4CEBBA3ACC7EBD6D8D0C2C5E4D667
:1004C000C3C1ACBDD30D0A005749464920B8B4CECC
:1004D000BBA3ACC7EBD6D8D0C2C5E4D6C3C1ACBDB4
:1004E000D3000000704700BFFEE700BFFEE700BF7B
:1004F000FEE700BFFEE77047704770477047000097
:100500000CB50020019000906C48006840F48030E9
:100510006A49086000BF6948006800F40030009034
:100520000198401C0190009818B90198B0F5A06F8F
:10053000F1D16248006800F4003010B10120009051
:1005400001E0002000900098012843D15C48006839
:1005500040F010005A4908600846006820F0030087
:1005600008600846006840F0020008605348406890
:10057000524948600846406848600846406840F470
:10058000806048600846406820F47C104860084657
:10059000406840F4E81048600846006840F0807009
:1005A000086000BF4548006800F000700028F9D0DE
:1005B0004248406820F003004049486008464068CF
:1005C00040F00200486000BF3C48406800F00C006A
:1005D0000828F9D10CBD10B5FFF792FF10BD10B57A
:1005E0003648006840F00100344908600846406819
:1005F000344908403149486008460068324908409B
:100600002E4908600846006820F4802008600846EB
:10061000406820F4FE0048604FF41F008860FFF738
:10062000DAFF4FF000602949086010BD10B50021C5
:1006300000200022214B5B6803F00C0121B104294A
:1006400006D0082928D107E0214B224C236027E05F
:100650001F4B204C236023E0184B5B6803F47010A1
:10066000164B5B6803F48032022303EB904022B9FF
:10067000194B4343174C23600DE0104B5B6803F4A8
:10068000003323B1144B4343124C236003E0104B5F
:100690004343104C236003E00D4B0E4C236000BF1E
:1006A00000BF064B5B68C3F303130C4CE15C094BC2
:1006B0001B68CB40074C236010BD000000100240B7
:1006C000002002400000FFF8FFFFF6FE08ED00E00A
:1006D00000127A000000002000093D000400002004
:1006E00008B50121092002F0BFFC0120ADF800008F
:1006F00018208DF8030003208DF802006946364863
:1007000002F0F6F90220ADF800006946324802F026
:10071000EFF90121314802F0BCFA2020ADF80000C9
:1007200069462D4802F0E4F920212B4802F08DFAA9
:100730000121294802F089FA0221274802F085FAAE
:1007400008BD00B587B00121022002F09AFC6320A9
:10075000ADF8140040F2CF20ADF810000020ADF845
:100760001600ADF8120004A91D4802F0B5FD602086
:10077000ADF800000120ADF802000020ADF8060041
:100780000220ADF808006946154802F024FE082151
:10079000134803F036FA6946114802F069FE082151
:1007A0000F4803F03BFA69460D4802F0ACFE082101
:1007B0000B4803F03CFA0121094803F0E9F9012153
:1007C000074803F0E5F807B000BD10B5FFF788FF54
:1007D000FFF7B7FF10BD0000000C014000081A0031
:1007E0000004004008B50121142002F03DFC4FF444
:1007F0000050ADF8000004208DF80300694625483C
:1008000002F076F90120ADF8000004208DF8030015
:100810006946214802F06CF908BD10B5044614B1D0
:1008200001201E4908701D48007818B301211A489C
:1008300002F0F1F9012806D04FF40051154802F0FA
:10084000EAF9012816D10A2000F023FB0020134901
:1008500008700121104802F0DEF9012801D10220C0
:1008600010BD4FF400510B4802F0D5F901280FD10B
:100870000320F5E70121084802F0CDF940B94FF413
:100880000051044802F0C7F910B90120034908706B
:100890000020E5E70010014000080140140000209E
:1008A0007FB505460C460121084602F0EAFBADF88B
:1008B0000850ADF804400020ADF80A00ADF806007D
:1008C00001A94FF0804002F007FD01221146900778
:1008D00003F079F81C208DF8000000208DF801004D
:1008E00003208DF8020001208DF80300684602F015
:1008F00036F80121880703F04BF87FBD2DE9F0475A
:10090000B4B00024864801F07FFF4FF4784001F036
:100910008DFF844804F0D0FA0446204609F08AF896
:1009200082464FF08B4108F0A3FF814608F006FF96
:1009300007464FF066327C4B08F0CCFD054608F0C8
:100940000DFD7A4908600846006808F0F7FE054684
:100950002A460B4676A11BA807F0AEFA0021734881
:10096000006809F093F918D87048006808F0E6FEAE
:100970000546764A764B08F071FD0ED24FF478406A
:1009800001F054FF002073A120231A46CDE9001086
:100990005421A02001F040FE53E06448006808F0B4
:1009A000CDFE0546694A6A4B08F092FE18D85F48AA
:1009B000006808F0C3FE0546644A684B08F04EFD27
:1009C0000ED24FF6E07001F031FF002064A1202329
:1009D0001A46CDE900105421A02001F01DFE30E0A0
:1009E0005248006808F0AAFE0546584A5B4B08F0DA
:1009F0006FFE18D84D48006808F0A0FE05464FF07D
:100A00003332594B08F02AFD0DD21F2001F00EFFA2
:100A1000002056A120231A46CDE900105421A02021
:100A200001F0FAFD0DE04FF6FF7001F0FFFE00202F
:100A300050A120231A46CDE900105421A02001F036
:100A4000EBFD01F0E4FEC0888004050C1BA92846DC
:100A500001F00DFC4FF4784001F0E8FE01F0D7FE04
:100A6000C088C0EBC00085B244A1284601F0FFFB5E
:100A70004849494800F032F9464800784B2803DCE1
:100A800045480078232804DD4FF6FF7001F0CEFEC4
:100A90000FE040480078322803DB3F4800781428F4
:100AA00003DA1F2001F0C2FE03E04FF4784001F0AA
:100AB000BDFE384803783848027838A102A807F00C
:100AC000FBF901F0A4FEC08800EBC00085B202A9CA
:100AD000284601F0CCFB34B0BDE8F08710B5012109
:100AE000880703F01EFA18B10121880703F02AFADB
:100AF00004F0E8FC2F480088401C2E490880084676
:100B00000088B0F57A7F09DD2B480078401C2A491F
:100B10000870FFF7F3FE00202649088010BD000092
:100B2000340000200028014066660A4018000020BA
:100B3000B5B1C7B0D3EAC1BF4144D7AABBBBB5E783
:100B4000D1B9A3BA252E3266200000009A9999994E
:100B50009999E93FCEDED3EA000000009999F93F68
:100B6000D0A1D3EA0000000033330340D6D0D3EA4B
:100B700000000000B4F3D3EA00000000CED2CAC7E0
:100B8000D2BBCCF5B7D6BDE7CFDF2D2D2D2D2D2D2A
:100B90002D2D00001D0000201C000020CEC2B6C874
:100BA0003A2564A1E62020CAAAB6C83A25642025C1
:100BB00025524800200000201E00002008B5012119
:100BC000202002F051FA4020ADF8000010208DF8EE
:100BD000030003208DF802006946594801F088FFA0
:100BE00008BD08B50121202002F03EFA4020ADF8F2
:100BF000000004208DF803006946514801F078FF99
:100C000008BD10B5FFF7DAFF00204E490860142038
:100C100000F03FF901204C49C1F898011E2000F076
:100C200014F910BD10B50024FFF7DBFF04E0601CD1
:100C3000C4B2012000F009F942488038006808B1C8
:100C4000642CF4DB642C01DB012010BD002404E0E3
:100C5000601CC4B2012000F0F8F83A4880380068FF
:100C600008B9642CF4DB642C01DB0120EDE70020E3
:100C7000EBE710B5002404E0601CC4B2012000F0D2
:100C8000E4F830488038006808B1642CF4DB0024B4
:100C900004E0601CC4B2012000F0D7F82948803875
:100CA000006808B9642CF4DB282000F0CEF8254851
:100CB0008038006808B1012010BD0020FCE770B545
:100CC0000024002506E06006040EFFF7D2FF04436F
:100CD000681CC5B2082DF6DB204670BD7CB5054604
:100CE0000E46FFF78EFFFFF79DFFF8B9002405E0E1
:100CF000FFF7E5FF0DF80400601CC4B2052CF7DB1C
:100D00009DF800009DF8011008449DF80210084469
:100D10009DF8031008449DF80410884208D19DF8FE
:100D2000000030709DF80200287001E001207CBDB9
:100D30000020FCE710B5FFF764FFFFF773FF10BD5D
:100D40000014014098812242008022422DE9F047A0
:100D50000446204608F06FFB07462B4A2B4B08F051
:100D6000B9FB054608F038FB00F105091FFA89F1C7
:100D7000274803F0A9F8BDE8F08700B589B0012144
:100D8000042002F07EF90121082002F06DF94FF4F1
:100D90008070ADF8200018208DF8230003208DF816
:100DA000220008A91B4801F0A3FEC720ADF81800D7
:100DB00041F61F40ADF814000020ADF81A00ADF860
:100DC000160005A9124802F087FA7020ADF8040059
:100DD0000120ADF806000220ADF80C000020ADF8AF
:100DE0000A0001A90A4802F043FB0821084802F062
:100DF00015FF0121064802F0CBFE0121044802F054
:100E0000C7FD09B000BD00001CC7711CC771BC3F05
:100E100000080040000C014010B56FF0040001F024
:100E2000E8FD2E4800682E49B0FBF1F02D4908700E
:100E30000846007800EB4001C1EBC0104FF6FF718F
:100E400001EAC0002849088010BD0146254A1278F1
:100E50004A434FF0E0235A6100229A611A46126910
:100E600042F001021A6100BF4FF0E022106900F069
:100E700001021AB100F48032002AF5D04FF0E022CE
:100E8000126922F001024FF0E0231A6100229A61F8
:100E900070470146144A12884A434FF0E0235A61D2
:100EA00000229A611A46126942F001021A6100BFDB
:100EB0004FF0E022106900F001021AB100F4803214
:100EC000002AF5D04FF0E022126922F001024FF023
:100ED000E0231A6100229A617047000000000020A0
:100EE00000127A00220000202400002000BF70477A
:100EF00000BF4A4A128802F04002002AF9D0C2B26A
:100F0000464B1B1D1A80704710B586B00446012160
:100F100044F2040002F0A8F84FF40070ADF8140099
:100F200003208DF8160018208DF8170005A93C48FD
:100F300001F0DEFD4FF48060ADF8140004208DF860
:100F4000170005A9364801F0D3FD25208DF80000D3
:100F500003208DF801008DF8020001208DF80300B8
:100F6000684601F0FCFC01940020ADF80800ADF8E3
:100F70000A00ADF80C00ADF810000C20ADF80E0022
:100F800001A9264803F025F8012240F22551234803
:100F900003F0B7F80121214803F0A7F806B010BD0F
:100FA00010B540F225511D4803F090F910B31B48CD
:100FB00003F00CF9C4B21B48008800F40040C8B923
:100FC0001848008800F4804060B10A2C03D000204B
:100FD0001449088020E01348008840F4004011497B
:100FE000088019E00D2C06D10E48008840F480409E
:100FF0000C49088010E00B480088C0F30D000A4936
:101000000C5408480088401C06490880084600889F
:10101000C72801DD0020088010BD00000038014015
:10102000000801402C0000209000002008B540F28C
:1010300025513F4803F04AF940B13D4803F0C6F856
:10104000C0B200900121684604F04CFB08BD10B509
:1010500086B004460121082002F006F80121880428
:1010600002F00FF8324802F071FF4FF48060ADF8E3
:10107000100003208DF8120018208DF8130004A929
:101080002C4801F035FD4FF40060ADF8100004204D
:101090008DF8130004A9274801F02AFD00940020D0
:1010A000ADF80400ADF80600ADF80800ADF80C008E
:1010B0000C20ADF80A0069461D4802F08AFF0121A4
:1010C0001B4803F012F8012240F22551184803F0A2
:1010D00018F827208DF8140000208DF81500022044
:1010E0008DF8160001208DF8170005A801F037FCD7
:1010F00006B010BD70B504460D462946204603F0E3
:1011000061F800BF8021204603F0CAF80028F9D01A
:1011100070BD70B506460C46002500BF615D3046C7
:10112000FFF7E8FF681CC5B2605D0028F6D170BD0E
:1011300000480040000C014000B587B001210803C1
:1011400001F092FF0121C42001F08EFF1020ADF8C4
:10115000040003208DF8060010208DF8070001A977
:10116000FE4801F0C5FC2020ADF8040018208DF8E1
:10117000070001A9F94801F0BBFC4020ADF80400CC
:1011800001A9F64801F0B4FC8020ADF8040001A9E3
:10119000F24801F0ADFC1021F04801F056FD0020AE
:1011A000ADF808004FF48270ADF80A000020ADF8E9
:1011B0000C000220ADF80E000120ADF81000400236
:1011C000ADF812000820ADF814000020ADF81600AC
:1011D0000720ADF8180002A9E14803F0E7FB012160
:1011E000DF4803F088FC07B000BD10B50446214677
:1011F000DCA006F055FE002010BD10B504464FF4EB
:101200008050E44908600AE0E2490868411EE14A6A
:10121000116020B90020FFF7E8FFC0B210BD022125
:10122000CF4803F0ECFC0028EED02146CC4803F078
:1012300093FC4FF48050D74908600AE0D54908680C
:10124000411ED44A116020B90120FFF7CEFFC0B281
:10125000E4E70121C24803F0D2FC0028EED0C048E8
:1012600003F07CFCC0B2D9E710B500241021BB48C4
:1012700001F0EDFC0520FFF7C0FF00BFFF20FFF7E6
:10128000BCFF044604F001000028F7D11021B34848
:1012900001F0DBFC10BD10B51021B04801F0D7FC07
:1012A0000620FFF7AAFF1021AC4801F0CEFC10BDCC
:1012B00010B50446FFF7EFFFFFF7D6FF1021A74850
:1012C00001F0C5FC2020FFF798FFC4F30740FFF7AB
:1012D00094FFC4F30720FFF790FFE0B2FFF78DFF04
:1012E00010219E4801F0B1FCFFF7BEFF10BD10B504
:1012F000FFF7D1FF1021994801F0A9FCC720FFF7A3
:101300007CFF1021954801F0A0FCFFF7ADFF10BD58
:1013100070B505460C461646FFF7BDFF10218F48F5
:1013200001F095FC0220FFF768FFC4F30740FFF7C8
:1013300064FFC4F30720FFF760FFE0B2FFF75DFF33
:10134000B6F5807F04DD4FF4807693A006F0A8FD0B
:1013500003E02878FFF751FF6D1C301EA6F1010154
:101360008EB2F6D110217D4801F06FFCFFF77CFFB3
:1013700070BD2DE9F05F07460E4614464FF0000899
:10138000C146C2460025AB4606F0FF0ACAF100007E
:10139000C5B22046E11704EB1161C1F30728E1173C
:1013A00004EB11610912A4EB012101F0FF09BAF16C
:1013B000000F20D1B8F1000F05D122463146384642
:1013C000FFF7A6FF64E009E04FF48072314638462B
:1013D000FFF79EFF06F5807607F58077B8F10000ED
:1013E000A8F1010101F0FF08EED14A463146384626
:1013F000FFF78EFF4CE0B8F1000F18D1A94510DDC2
:10140000A9EB050000F0FF0B2A4631463846FFF7EE
:101410007FFF2E442F445A4631463846FFF778FF67
:1014200036E0224631463846FFF772FF30E0601B57
:1014300084B22046E11704EB1161C1F30728E117DC
:1014400004EB11610912A4EB012101F0FF092A4606
:1014500031463846FFF75CFF2E442F4409E04FF435
:10146000807231463846FFF753FF06F5807607F560
:101470008077B8F10000A8F1010101F0FF08EED17A
:10148000B9F1000F04D04A4631463846FFF740FF15
:10149000BDE8F09F70B505460C46164610212F4852
:1014A00001F0D5FB0320FFF7A8FEC4F30740FFF7C8
:1014B000A4FEC4F30720FFF7A0FEE0B2FFF79DFEF5
:1014C00004E0FF20FFF799FE28706D1C301EA6F186
:1014D00001018EB2F5D11021204801F0B6FB70BD9C
:1014E0002DE9F041002400250026002710211B488B
:1014F00001F0ADFB9F20FFF780FEFF20FFF77DFE90
:101500000546FF20FFF779FE0646FF20FFF775FE30
:1015100007461021114801F098FB280440EA0620F4
:1015200040EA07042046BDE8F08110B500241021F0
:101530000A4801F08CFBAB20FFF75FFEFF20FFF7AE
:101540005CFEFF20FFF759FEFF20FFF756FEFF204D
:10155000FFF753FE04461021004837E00008014021
:10156000003001403C3C2D464C4153482D455252E1
:101570004F522D3E3E2053504920B5C8B4FDB3AC68
:10158000CAB1216572726F72436F6465203D202578
:10159000640A0000300000203C3C2D464C4153487A
:1015A0002D4552524F522D3E3E205350495F464CDE
:1015B0004153485F50616765577269746520746F65
:1015C0006F206C61726765210A00000001F03DFB2D
:1015D000204610BD10B504461021324801F037FBFB
:1015E0000320FFF70AFEC4F30740FFF706FEC4F32B
:1015F0000720FFF702FEE0B2FFF7FFFD10BD10B5B8
:10160000FF20FFF7FAFD10BD10B504464FF48050DF
:101610002549086009E024490868411E224A1160F2
:1016200018B90220FFF7E1FD10BD02211F4803F0A9
:10163000E6FA0028EFD021461C4803F08DFA4FF45B
:1016400080501949086009E017490868411E164A88
:10165000116018B90320FFF7C8FDE5E70121134821
:1016600003F0CDFA0028EFD0104803F077FADBE75B
:1016700010B510210B4801F0EAFAB920FFF7BDFDC3
:101680001021084801F0E1FA10BD10B510210548FD
:1016900001F0DDFAAB20FFF7B0FD1021014801F0A9
:1016A000D4FA10BD00080140300000200030014095
:1016B0002DE9F04180460C461048007820B9FFF72C
:1016C0003BFD01200D4908702512E6B2A5F1A101EC
:1016D000C1EB011202EB411106EB4101A1390802F5
:1016E000C11700EB5171CF10054839182022404630
:1016F000FFF7D0FE0020BDE8F08100004C00002084
:101700000030180001B502E00098401E00900098DB
:101710000028F9D108BD08B501214FF4B07001F0DF
:10172000A3FC03208DF8020018208DF803004FF46D
:101730008040ADF800006946FE4801F0D9F94FF449
:101740000040ADF800006946FA4801F0D1F90120E7
:10175000ADF800006946F74801F0CAF90220ADF87B
:1017600000006946F34801F0C3F98020ADF800009D
:101770006946F14801F0BCF94FF48070ADF8000003
:101780006946ED4801F0B4F94FF40070ADF800007F
:101790006946E94801F0ACF94FF48060ADF800000B
:1017A0006946E54801F0A4F94FF40060ADF8000087
:1017B0006946E14801F09CF94FF48050ADF8000013
:1017C0006946DD4801F094F94FF40050ADF800008F
:1017D0006946D94801F08CF94FF48040ADF800001B
:1017E0006946D54801F084F94FF40040ADF8000097
:1017F0006946D14801F07CF94FF48070ADF80000E3
:101800006946CC4801F074F94FF40070ADF800005F
:101810006946C84801F06CF94FF48060ADF80000EB
:101820006946C44801F064F903208DF802001820CD
:101830008DF803001020ADF800006946BD4801F0A6
:1018400057F92020ADF800006946BA4801F050F978
:101850004FF48050ADF800006946B84801F048F9EF
:101860000420ADF800006946B34801F041F91020AA
:101870008DF8030003208DF802004FF40060ADF8EE
:1018800000006946AD4801F033F910208DF80300DF
:1018900003208DF802004020ADF800006946A748FB
:1018A00001F026F908BD00B597B00121080201F04A
:1018B000CEFB0120019004200390800607900020B9
:1018C0000290049005900690062008900020099050
:1018D00008200A9010200B9000200C900E900F9082
:1018E00010904FF48050119000201290139014909B
:1018F00001A81590169008A802F078FD0121062095
:1019000002F0DCFE17B000BD10B5CF2007F0D6FC0A
:10191000002007F0D7FC812007F0D4FC302007F02E
:10192000D1FCED2007F0CAFC642007F0CBFC0320BB
:1019300007F0C8FC122007F0C5FC812007F0C2FCAC
:10194000E82007F0BBFC852007F0BCFC102007F066
:10195000B9FC782007F0B6FCCB2007F0AFFC3920AB
:1019600007F0B0FC2C2007F0ADFC002007F0AAFC2B
:10197000342007F0A7FC022007F0A4FCF72007F0B2
:101980009DFC202007F09EFCEA2007F097FC002039
:1019900007F098FC002007F095FCB12007F08EFCC2
:1019A000002007F08FFC1B2007F08CFCB62007F00E
:1019B00085FC0A2007F086FCA22007F083FCC020EB
:1019C00007F07CFC352007F07DFCC12007F076FC99
:1019D000112007F077FCC52007F070FC452007F0C8
:1019E00071FC452007F06EFCC72007F067FCA220C1
:1019F00007F068FCF22007F061FC002007F062FCB1
:101A0000262007F05BFC012007F05CFCE02007F0DB
:101A100055FC0F2007F056FC262007F053FC24202D
:101A200007F050FC0B2007F04DFC0E2007F04AFC9D
:101A3000092007F047FC542007F044FCA82007F0D9
:101A400041FC462007F03EFC0C2007F03BFC172031
:101A500007F038FC092007F035FC0F2007F032FCB6
:101A6000072007F02FFC002007F02CFCE12007F0F6
:101A700025FC002007F026FC192007F023FC1B2082
:101A800007F020FC042007F01DFC102007F01AFCD2
:101A9000072007F017FC2A2007F014FC472007F066
:101AA00011FC392007F00EFC032007F00BFC062088
:101AB00007F008FC062007F005FC302007F002FCC8
:101AC000382007F0FFFB0F2007F0FCFB362007F063
:101AD000F5FBC82007F0F6FB2A2007F0EFFB0020FB
:101AE00007F0F0FB002007F0EDFB002007F0EAFB19
:101AF000EF2007F0E7FB2B2007F0E0FB002007F0CA
:101B0000E1FB002007F0DEFB012007F0DBFB3F20BC
:101B100007F0D8FB3A2007F0D1FB552007F0D2FBA5
:101B2000112007F0CBFB0648FFF7ECFD292007F05A
:101B3000C5FB10BD00140140001801400020014009
:101B4000FCBF020010B50446072C00DD10BDFE48A6
:101B50000470204604EBD0714910A4EB410139B95F
:101B6000F020FA4908804FF4A070F949088006E097
:101B70004FF4A070F5490880F020F5490880362020
:101B800007F09CFB082141EA441007F09BFB2A2048
:101B900007F094FB002007F095FB002007F092FB74
:101BA000EA490988491EC1F3072007F08BFBE74982
:101BB0000978491EC8B207F085FB2B2007F07EFB91
:101BC000002007F07FFB002007F07CFBE04909883C
:101BD000491EC1F3072007F075FBDD490978491E4E
:101BE000C8B207F06FFB2C2007F068FB00BFADE721
:101BF00010B54FF40061D74801F029F840F6FF20F6
:101C0000FFF780FD4FF40061D24801F01EF840F666
:101C1000FF20FFF777FD10BD10B5044624B1402129
:101C2000CC4801F014F803E04021CA4801F00DF857
:101C300010BD10B5FFF76FFDFFF735FE0120FFF770
:101C4000EBFFFFF7D5FFFFF75FFEBF480078FFF718
:101C500079FF10BD2DE9F04104460D4616461F469A
:101C60002A2007F02BFB201207F02CFBE0B207F034
:101C700029FBA119491EC1F30F2007F023FBA1196D
:101C8000491EC8B207F01EFB2B2007F017FB2812D5
:101C900007F018FBE8B207F015FBE919491EC1F37C
:101CA0000F2007F00FFBE919491EC8B207F00AFB25
:101CB000BDE8F08170B504460D4601231A46294659
:101CC0002046FFF7C7FF70BD70B504460D460026DD
:101CD0002C2007F0F3FA00BF03E0284607F0F2FAE1
:101CE000761CA642F9D370BD2DE9F04106460F4699
:101CF00014461D462B46224639463046FFF7AAFFBA
:101D000004FB05F094490988FFF7DEFFBDE8F08188
:101D100070B505460C468D48008885420CDA8C4823
:101D20000088844208DA21462846FFF7C3FF8B4823
:101D300001880120FFF7C8FF70BD70B500240025A1
:101D400000262E2007F0BAFA07F0B4FA044607F08E
:101D5000B1FA044607F0AEFA064607F0ABFA0546BC
:101D6000E012C002A91240EA411040EAE62070BD2C
:101D700070B504460D4629462046FFF79BFFFFF746
:101D8000DCFF0646304670BD2DE9FF4F83B081462B
:101D90004FF0000AD3460598A0EB09050499069870
:101DA000461ACDF8049004980090002D01DD01271B
:101DB00005E00DB9002702E04FF0FF376D42002E1D
:101DC00002DD4FF0010806E016B94FF0000802E00E
:101DD0004FF0FF387642B54201DD2C4600E0344634
:101DE0000020029019E0DDE90010FFF791FFAA44FE
:101DF000B344A24505DDAAEB040A0198384480B239
:101E00000190A34505DDABEB040B0098404480B284
:101E100000900298401C80B20290611C0298884297
:101E2000E1DD07B0BDE8F08F2DE9F04104460D4635
:101E300016461F46DDF81880B8F1000F0CD03B465F
:101E4000324629462046FFF705FF06FB07F04349C7
:101E50000988FFF739FF27E0A019401E82B22B4600
:101E600029462046FFF790FFE819401E83B2A019CB
:101E7000401E82B2E819401E81B22046FFF784FF5F
:101E8000E819401E83B2224629462046FFF77CFF10
:101E9000E919491E8BB2A119491E8AB2A119491E1E
:101EA00088B22946FFF770FFBDE8F0812DE9F05FA9
:101EB00005460E4691469B4600240FFA89F70320FB
:101EC000A0EB49000FFA80FA95E0BBF1000F4ED06D
:101ED000A04649E006EB080291B22A1990B2FFF73A
:101EE00017FF06EB080291B22A1B90B2FFF710FF12
:101EF000321991B2A5EB080290B2FFF709FF321B2D
:101F000091B2A5EB080290B2FFF702FFA6EB080220
:101F100091B22A1B90B2FFF7FBFEA6EB080291B22A
:101F20002A1990B2FFF7F4FE321B91B205EB0802BA
:101F300090B2FFF7EDFE321991B205EB080290B2B4
:101F4000FFF7E6FE0CE000005400002050000020E7
:101F500052000020002001405E0000205C000020B4
:101F600008F101000FFA80F8B845B3DD2FE0F2194F
:101F700091B22A1990B2FFF7CBFEF21991B22A1B47
:101F800090B2FFF7C5FE321991B2EA1B90B2FFF78B
:101F9000BFFE321B91B2EA1B90B2FFF7B9FEF21BF3
:101FA00091B22A1B90B2FFF7B3FEF21B91B22A192D
:101FB00090B2FFF7ADFE321B91B2EA1990B2FFF773
:101FC000A7FE321991B2EA1990B2FFF7A1FE601C88
:101FD00004B2BAF1000F05DAA000801D50440FFAD8
:101FE00080FA07E0E01B80000A3050440FFA80FAC4
:101FF000781E07B200BFBC427FF767AFBDE8F09F15
:102000002DE9F05F804689461646A6F120001FFAAA
:1020100080FAFD4909688988FB4A1268D28801FB69
:1020200002F0C11700EB5171C1F3C707F648006811
:1020300000680AFB070BF4480068C388F248006890
:10204000828849464046FFF705FE2C2007F036F906
:10205000002416E0002510E01BF80400802129412F
:10206000084020B1E948008807F02CF903E0E8486F
:10207000008807F027F9681CC5B2082DECDB601C4E
:10208000C4B2BC42E6DBBDE8F09F70B504460D4625
:10209000002624E03046DC49096889880844DD4987
:1020A0000988884205DD0026D7480068C08820449A
:1020B00084B22046D4490968C9880844D6490988A9
:1020C000884201DD002600242A7821463046FFF7A9
:1020D00097FF6D1CCC4800688088304486B2287811
:1020E0000028D7D170BD70B505460E46144624E0D1
:1020F0002846C549096889880844C649098888422C
:1021000005DD0025C0480068C088304486B23046EE
:10211000BD490968C9880844BF490988884201DD6A
:1021200000250026227831462846FFF769FF641C07
:10213000B54800688088284485B220780028D7D127
:1021400070BD70B505460E46144624E03046AE49D3
:102150000968C9880844B0490988884205DD002615
:10216000A94800688088284485B22846A64909689D
:1021700089880844A7490988884201DD002500268E
:10218000227831462846FFF73BFF641C9E480068D2
:10219000C088304486B220780028D7D170BD2DE9A0
:1021A000F04389B080468946174610231A464946AF
:1021B0004046FFF74FFD2C2007F080F8394601A874
:1021C000FFF776FA002422E001A810F814604FF619
:1021D000FF7000EA0626012000EB440001A9085C1C
:1021E000064300250FE04FF400402841304020B165
:1021F0008648008807F066F803E08548008807F005
:1022000061F8681CC5B2102DEDDB601CC4B2102C47
:10221000DADB09B0BDE8F0832DE9F04105460F4651
:1022200014461FE0284610307A490988884203DDA9
:10223000002507F1100087B238461030764909882A
:10224000884201DD002500272688300200EB262089
:1022500086B2324639462846FFF7A1FF05F1100045
:1022600085B2A41C20780028DCD1BDE8F0812DE9DE
:10227000F04105460C46002648E020787E2825DC03
:10228000304661490968898808446249098888425A
:1022900005DD00265C480068C088284485B22846D1
:1022A00059490968C98808445B490988884201DDA1
:1022B00000260025227829463046FFF7A1FE524825
:1022C00000688088304486B2641C1FE030461030BD
:1022D00050490988884203DD002605F1100085B2C7
:1022E000284610304C490988884201DD0026002527
:1022F0002788380200EB272087B23A462946304625
:10230000FFF74DFF06F1100086B2A41C20780028CC
:10231000B3D1BDE8F0812DE9F04105460E461446E3
:1023200048E020787E2825DC2846374909688988D6
:10233000084438490988884205DD0025324800688C
:10234000C088304486B230462F490968C98808449D
:1023500031490988884201DD00250026227831466E
:102360002846FFF74DFE284800688088284485B23B
:10237000641C1FE02846103026490988884203DD86
:10238000002506F1100086B2304610302249098837
:10239000884201DD002500262788380200EB27202F
:1023A00087B23A4631462846FFF7F9FE05F110009C
:1023B00085B2A41C20780028B3D1BDE8F0812DE9B6
:1023C000F04106460D46144636E0284610301249C4
:1023D0000988884203DD002506F1100086B23046E8
:1023E00010300C490988884201DD0026002520783C
:1023F0007E2813DC227829463046FFF701FE641C54
:1024000005F1100085B217E0580000205C000020A4
:102410005E00002050000020520000202788380273
:1024200000EB272087B23A4629463046FFF7B7FE31
:1024300005F1100085B2A41C20780028C5D1BDE8A4
:10244000F0812DE9FC4F0C461E464FEA004A9AFBEC
:10245000F2FA0AF1010ACDF804A04FEA044A9AFB05
:10246000F6FA0AF1010ACDF800A04FF00009202881
:1024700001DBBDE8FC8F00FB04FABAF1000F00D1CC
:10248000F7E700FB04FABAF5806F00DBF1E702FB27
:1024900006FABAF1000F00D1EBE702FB06FABAF533
:1024A000804F00DBE5E7EB4BDDF834A0BAF1000F1D
:1024B0002BD100211FE0002517E0DDF82CA01AF831
:1024C00001A04FF0800B4BFA05FB0AEA0B0ABAF1A8
:1024D000000F02D04FF0010A01E04FF0000A03F8AC
:1024E00001AB05F1010A1FFA8AF5082DE5DB01F1C0
:1024F000010A1FFA8AF104FB00FA4FEAEA7B0AEBB1
:102500005B7BB1EBEB0FD6DB2AE000211FE000255F
:1025100017E0DDF82CA01AF801A04FF0800B4BFA61
:1025200005FB0AEA0B0ABAF1000F02D04FF0010ACC
:1025300001E04FF0000A03F801AB05F1010A1FFAB0
:102540008AF5082DE5DB01F1010A1FFA8AF104FB87
:1025500000FA4FEAEA7B0AEB5B7BB1EBEB0FD6DBD1
:10256000BC4BBD4F4FF0000C1AE04FF0000A4FEA91
:10257000194B00FB0B3ED0460AE00EEB1A4B9BF8C2
:1025800000B007F808B0DDF804B0DA4408F101083B
:102590009045F2D3DDF800B0D94417440CF1010C9A
:1025A000B445E2D3DFF8B0A2CDF830A0DDF830A01A
:1025B0000AF1010ACDF830A000BF5AE72DE9F05F1B
:1025C00081468A4614461D46DDE90A6B0027B84657
:1025D0002B46224651464846FFF73CFB2C2006F08E
:1025E0006DFE00BF14E04FF000080EE016F8011B6E
:1025F000594504D19948008806F064FE03E09848E4
:10260000008806F05FFE08F10108A045EED37F1CAC
:10261000AF42E8D3BDE8F09F2DE9F04F8FB00646FA
:10262000884614469946DDE9185B274669E030463E
:1026300038448C490988884204DD002608EB0900EB
:102640001FFA80F84046484487490988884201DDDE
:102650000026B0462878802825DD2746B5F800A05A
:102660004FEA0A2000EB2A201FFA80FA514605A8FB
:10267000FFF71EF8012105AA0E984B46CDE9002070
:1026800002913A4610210846FFF7DBFE72484B469E
:102690003A464146CDE9000B3046FFF78FFFF0196F
:1026A00086B2AD1C2DE0204604EBD071C1F34F077C
:1026B00028782038C0B20D9000236C48C288DDE92C
:1026C0000D015043694A92885043C217049000EBB1
:1026D0005270664A126802EBE0008DE80B004B4630
:1026E0003A4618211020FFF7ACFE5B484B463A46AD
:1026F0004146CDE9000B3046FFF760FFF01986B286
:102700006D1C2878002892D10FB0BDE8F08F2DE91C
:10271000F04F8FB080460E4614461F46DDE9185A2A
:102720000E946BE0304620444E490988884204DD0F
:10273000002608EB04001FFA80F8404638444A4956
:102740000988884201DD0026B0462878802825DDEA
:102750000E94B5F800904FEA092000EB29201FFAEB
:1027600080F9494604A8FEF7A3FF012104AA0D98A9
:102770003B46CDE900200291102108460E9AFFF752
:1027800060FE35483B46CDE9000A314640460E9A88
:10279000FFF714FFF01986B2AD1C2FE0204604EBC2
:1027A000D071C1F34F010E9128782038C0B20C903F
:1027B00000232E48C288DDE90C0150432B4A928841
:1027C00000FB02FB4FEAEB700BEB5070274A1268DC
:1027D00002EBE0008DE80B003B46182110200E9A1A
:1027E000FFF72FFE1C483B46CDE9000A3146404624
:1027F0000E9AFFF7E3FEF01986B26D1C28780028C8
:1028000090D10FB0BDE8F08F1949086070471848A3
:1028100000687047124A1080104A11807047104AB1
:10282000128802800D4A12880A8070470C4908807D
:1028300070470A490880704770B50446FFF7E7FF04
:10284000C5882B460748028821460020FFF74CFA2E
:1028500070BD000058410020580100205E0000209B
:102860005C00002050000020520000203C000020AE
:102870005800002008B50121102000F0F5FB0220CF
:10288000ADF8000000208DF8030069461F4800F0F5
:102890002FF908BD00B585B00121880200F0E4FBE6
:1028A000002000908DF8040001208DF805004FF401
:1028B000602002900020039001208DF810006946EE
:1028C000134802F0FAF9052301220B21104802F007
:1028D0008CFA01210E4802F01CFA01210C4802F08A
:1028E00058FA05B000BD10B5FFF7C4FFFFF7D2FFDF
:1028F00010BD10B50221064802F0BCFB012803D12F
:10290000034802F0D9FA0446204610BD00100140E9
:10291000002801400948804709480047FEE7FEE7D4
:10292000FEE7FEE7FEE7FEE7FEE7FEE7FEE7FEE77F
:1029300004480549054A064B70470000DF050008BA
:102940003101000898470020984D00209849002048
:102950009849002031490143314A1160704770B5F0
:10296000002100230F22C47804B32D4C246804F402
:10297000E064C4F5E064210AC1F10403CA4044786C
:1029800004FA03F18478144021430901254C0678A8
:10299000A155047804F01F050124AC4005786D11A1
:1029A000AD0005F1E025C5F8004109E0047804F028
:1029B0001F050124AC401C4D0678761145F82640D1
:1029C00070BD1A4A0A400243154B1B1F1A6070471C
:1029D00039B1134A121D12680243114B1B1D1A60B4
:1029E00006E00F4A121D126882430D4B1B1D1A6030
:1029F0007047042808D14FF0E021096941F0040133
:102A00004FF0E022116107E04FF0E021096921F069
:102A100004014FF0E0221161704700000000FA0548
:102A20000CED00E000E400E080E100E080FFFF1F2B
:102A300010B50446CC48844208D10121042000F09E
:102A40002DFB0021042000F029FB46E0C74884420A
:102A500008D10121082000F021FB0021082000F00E
:102A60001DFB3AE0C248844208D10121102000F049
:102A700015FB0021102000F011FB2EE0BD48844220
:102A800008D10121202000F009FB0021202000F0C6
:102A900005FB22E0B848844208D10121402000F023
:102AA000FDFA0021402000F0F9FA16E0B348844214
:102AB00008D10121802000F0F1FA0021802000F0EF
:102AC000EDFA0AE0AE48844207D10121801500F0FA
:102AD000E5FA0021A01500F0E1FA10BD10B50121C2
:102AE000084600F0DBFA0021012000F0D7FA10BD03
:102AF0002DE9F04102460025002600200023002495
:102B0000002791F803C00CF00F0591F803C00CF0FA
:102B1000100CBCF1000F03D091F802C04CEA05057F
:102B200091F800C0BCF1000F31D0146800202BE0F8
:102B30004FF0010C0CFA00F3B1F800C00CEA0306E8
:102B40009E4220D183004FF00F0C0CFA03F7BC43D8
:102B500005FA03FC4CEA040491F803C0BCF1280F09
:102B600006D14FF0010C0CFA00FCC2F814C00AE0C8
:102B700091F803C0BCF1480F05D14FF0010C0CFADD
:102B800000FCC2F810C0401C0828D1D31460B1F872
:102B900000C0BCF1FF0F34DD546800202EE000F1CE
:102BA000080C4FF0010808FA0CF3B1F800C00CEA69
:102BB00003069E4221D183004FF00F0C0CFA03F75D
:102BC000BC4305FA03FC4CEA040491F803C0BCF1D1
:102BD000280F05D100F1080C08FA0CF8C2F814808F
:102BE00091F803C0BCF1480F07D100F1080C4FF079
:102BF000010808FA0CF8C2F81080401C0828CED34F
:102C00005460BDE8F0814FF6FF71018002218170B0
:102C10000421C17070470246002093680B400BB13D
:102C2000012000E0002070470146886880B27047AC
:102C300002460020D3680B400BB1012000E00020C9
:102C400070470146C86880B27047016170474161B2
:102C500070470AB1016100E041617047C16070478F
:102C60004FF480320A4382618161826182698269A4
:102C7000704702460020434B18684FF68073184097
:102C800040EA021008433F4B186070473E49C86154
:102C90007047F0B50A46002300240021002500F00B
:102CA0000046B6F1004F02D1364EF16901E0354ED3
:102CB0007168C0F3034583B200F44016B6F5401FB7
:102CC00008D121F070612F4E766826F070662D4F86
:102CD0007E6012E000F48016B6F5801F06D1032650
:102CE00006FA05F4A14341F0706106E0460D360195
:102CF00003FA06F6B14341F0706122B1460D360188
:102D000003FA06F6314300F00046B6F1004F02D157
:102D10001C4EF16101E01B4E7160F0BD30B5002228
:102D20008B071C0F0F2303FA04F2164B08338C1089
:102D300053F824309343134C08348D1044F8253055
:102D400023468C1053F824308C07240F00FA04F427
:102D500023430C4C08348D1044F8253030BD0A490B
:102D6000DC3108607047000000080140000C0140A1
:102D7000001001400014014000180140001C0140F7
:102D8000002001400000014000002042DF480068B0
:102D900040F00100DD49086008464068DC49084011
:102DA000DA49486008460068DA490840D7490860AF
:102DB0000846006820F4802008600846406820F437
:102DC000FE0048604FF41F0088607047CF490968D3
:102DD00021F48031CD4A11601146096821F4802127
:102DE0001160B0F5803F03D0B0F5802F0ED106E022
:102DF000C649096841F48031C44A116007E0C349FB
:102E0000096841F4A021C14A116000E000BF00BF81
:102E1000704710B501460022002300204A11012A04
:102E200002D1BA4C236806E0022A02D1B74C236AC9
:102E300001E0B64C636A01F01F02012494401C407B
:102E40000CB1012000E0002010BD38B5002000903A
:102E50000024002500BF3120FFF7DBFF0546009866
:102E6000401C00900098B0F5A06F01D0002DF2D06A
:102E70003120FFF7CEFF08B1012400E000242046F6
:102E800038BD01460020A14A106820F0F80040EA51
:102E9000C10010607047A0490860704702460020DA
:102EA0009A4B586820F47C1042EA01031843974B70
:102EB0005860704798490866704701460020934A59
:102EC000506820F003000843506070478F48406806
:102ED00000F00C007047014600208C4A506820F03A
:102EE000F00008435060704701460020874A506850
:102EF00020F4E06008435060704701460020834A98
:102F0000506820F4605040EAC1005060704729B119
:102F10007E4A527A02437D4B5A7204E07B4A527ACF
:102F200082437A4B5A7270477B49D83108607047A8
:102F300001460020754A506820F440400843506024
:102F400070470021714A20321170704A82F82010B7
:102F5000012802D004280AD104E001216B4A203262
:102F6000117005E00521694A2032117000E000BFB0
:102F700000BF70476949086070476449096A0143A6
:102F8000624A11627047654944390860704730B53C
:102F900000210022002400235C4D6D6805F00C0127
:102FA00021B1042905D0082923D105E05C4D056035
:102FB00022E05B4D05601FE0544D6D6805F4701212
:102FC000524D6D6805F48034022505EB92421CB920
:102FD000544D554305600BE04C4D6D6805F40035CC
:102FE0001DB1504D5543056002E04D4D5543056000
:102FF00002E04B4D056000BF00BF444D6D6805F019
:10300000F0010909484D6B5C0568DD4045603F4DA6
:103010006D6805F4E061090A434D6B5C4568DD406D
:1030200085603A4D6D6805F46051C90A3E4D6B5C90
:103030004568DD40C560354D6D6805F44041890B3C
:103040003A4D6B5CC568B5FBF3F5056130BD29B140
:103050002E4A526902432D4B5A6104E02B4A5269B1
:1030600082432A4B5A61704729B1284A9269024328
:10307000264B9A6104E0254A92698243234B9A6168
:10308000704729B1214AD2690243204BDA6104E03A
:103090001E4AD26982431D4BDA61704729B11B4A2F
:1030A000D2680243194BDA6004E0184AD2688243BE
:1030B000164BDA60704729B1144A12690243134B68
:1030C0001A6104E0114A12698243104B1A61704779
:1030D00012494039086070470F49C86470470B496E
:1030E000C87170470948406A40F0807007494862DB
:1030F000704701460020054A92680A400AB1012043
:1031000000E00020704701498872704700100240BB
:103110000000FFF8FFFFF6FE00004242800442423A
:1031200000127A0000093D006000002070000020BD
:1031300010B50446FE48844208D10121C014FFF7AF
:10314000ADFF0021E014FFF7A9FFC4E0B4F1804F08
:1031500008D101210846FFF7AEFF00210120FFF74B
:10316000AAFFB8E0F348844208D101210220FFF70A
:10317000A2FF00210220FFF79EFFACE0EE48844250
:1031800008D101210420FFF796FF00210420FFF75A
:1031900092FFA0E0E948844208D101210820FFF70E
:1031A0008AFF00210820FFF786FF94E0E44884426C
:1031B00008D101211020FFF77EFF00211020FFF72A
:1031C0007AFF88E0DF48844208D101212020FFF700
:1031D00072FF00212020FFF76EFF7CE0DA48844276
:1031E00008D101214014FFF759FF00216014FFF7B7
:1031F00055FF70E0D548844209D10121C804FFF78A
:103200004DFF00214FF40020FFF748FF63E0D04856
:10321000844209D101210805FFF740FF00214FF446
:103220008010FFF73BFF56E0CA48844209D10121D4
:103230004805FFF733FF00214FF40010FFF72EFF82
:1032400049E0C548844208D101214020FFF733FFFF
:1032500000214020FFF72FFF3DE0C048844208D105
:1032600001218020FFF727FF00218020FFF723FFA7
:1032700031E0BB48844208D101218015FFF71BFFD4
:103280000021A015FFF717FF25E0B648844209D1B9
:1032900001210804FFF702FF00214FF48030FFF7FF
:1032A000FDFE18E0B048844209D101214804FFF72F
:1032B000F5FE00214FF40030FFF7F0FE0BE0AB48C5
:1032C000844208D101218804FFF7E8FE00214FF471
:1032D0008020FFF7E3FE10BD00220288944B984245
:1032E0000ED0994B98420BD0B0F1804F08D0914B43
:1032F000984205D0904B984202D0904B984204D10E
:103300004FF68F731A404B881A438D4B984207D063
:103310008C4B984204D04FF6FF431A40CB881A4397
:1033200002808B8883850B880385814B98420BD064
:10333000854B984208D08B4B984205D08A4B9842D7
:1033400002D08A4B984201D10B7A038601238382F3
:10335000704770B5002400220023058C4FF6FE76DE
:1033600035400584028C8388048B4FF68F752C4082
:10337000B51E2C400D882C43751E2A400D892A430A
:103380004D882A436A4DA8420BD06F4DA84208D001
:10339000744DA84205D0744DA84202D0734DA84286
:1033A00013D14FF6F7752A404D892A434FF6FB7526
:1033B0002A408D882A434FF6FF652B404FF6FF5574
:1033C0002B408D892B43CD892B4383800483CD886B
:1033D0008586028470BD70B5002400220023058C10
:1033E0004FF6EF7635400584028C8388048B48F6CF
:1033F000FF752C404FF6FF452C400D884FF6FF76A9
:1034000006EA05252C434FF6DF752A400D8906EAAA
:1034100005152A434D8806EA05152A43444DA8425E
:1034200002D0494DA8421DD14FF67F752A404D89E3
:103430004FF6FF7606EA05152A434FF6BF752A4078
:103440008D8806EA05152A434FF6FF352B404FF2CB
:10345000FF752B408D8906EA85052B43CD8906EA49
:1034600085052B4383800483CD880587028470BD46
:1034700070B5002400220023058C4FF6FF6635400E
:103480000584028C8388848B4FF68F752C404FF611
:10349000FC752C400D882C434FF6FF552A400D89B2
:1034A0004FF6FF7606EA05252A434D8806EA0525EC
:1034B0002A431F4DA84202D0234DA8421DD14FF2EE
:1034C000FF752A404D894FF6FF7606EA05252A4307
:1034D0004FF6FF352A408D8806EA05252A434EF629
:1034E000FF752B404DF6FF752B408D8906EA0515BB
:1034F0002B43CD8906EA05152B4383808483CD8831
:103500008587028470BD70B5002200230024058CDD
:103510004EF6FF7635400584038C8488828B48F60E
:10352000FF752A404FF6FF452A400D8820E0000035
:10353000002C01400004004000080040000C004046
:10354000001000400014004000340140004C0140D5
:10355000005001400054014000180040001C004091
:10356000002000400040014000440140004801406C
:103570004FF6FF7606EA05252A434DF6FF752B40E8
:103580000D8906EA05352B434D8806EA05352B43A0
:10359000FA4DA84202D0FA4DA84208D14BF6FF7569
:1035A0002C408D894FF6FF7606EA85152C438480E2
:1035B0008283CD88A0F84050038470BD828B4FF287
:1035C000FF331A408283828B4FF6FF7303EA012395
:1035D0001A4382837047F0B50C461546002200213D
:1035E0000026078C4EF6FF7C07EA0C070784828BC7
:1035F000018C4FF6FF7707EA043640F6FF473A4062
:103600004FF6FF7707EA05273A434FF6FF7707EAB9
:1036100003373A43D94FB8420ED0D94FB8420BD0F6
:10362000B0F1804F08D0D74FB84205D0D64FB8423E
:1036300002D0D64FB84206D14DF6FF77394046F456
:103640008057394305E047F6FF57394044F4805727
:10365000394382830184F0BD828B4FF6F3731A40A5
:103660008283828B0A4382837047F0B50C461546ED
:10367000002200210026078C4FF6FF6C07EA0C079A
:103680000784828B018C4FF6FF7707EA04264FF6FA
:103690000C773A404FF6FF7707EA03172F433A4378
:1036A000B64FB8420ED0B64FB8420BD0B0F1804FF3
:1036B00008D0B44FB84205D0B34FB84202D0B34F90
:1036C000B84206D14FF6FF57394046F48077394368
:1036D00005E04FF2FF57394044F480773943828345
:1036E0000184F0BD028B4FF2FF331A400283028B3C
:1036F0004FF6FF7303EA01231A4302837047F0B5C4
:103700000C461546002200210026078C4FF6EF7C60
:1037100007EA0C070784028B018C4FF6FF7707EA54
:10372000041640F6FF473A404FF6FF7707EA0337A3
:103730003A434FF6FF7707EA05273A438F4FB842DF
:103740000ED08F4FB8420BD0B0F1804F08D08D4FC4
:10375000B84205D08C4FB84202D08C4FB84206D147
:103760004FF6DF77394046F01007394305E04FF652
:103770005F77394044F01007394302830184F0BD7C
:10378000028B4FF6F3731A400283028B0A430283C3
:103790007047F0B50C46154600220021068C4FF606
:1037A000FE773E400684028B018C4FF60C76324049
:1037B0007E1C06EA03162E433243704EB0420ED0F2
:1037C0006F4EB0420BD0B0F1804F08D06D4EB0427A
:1037D00005D06D4EB04202D06C4EB04206D14FF6CD
:1037E000FD76314044F00106314305E04FF6F576B1
:1037F000314044F00106314302830184F0BD70B5CD
:1038000005460C465D4885420ED05D4885420BD08A
:10381000B5F1804F08D05B48854205D05A488542B3
:1038200002D05A48854200D100E000BF208850B93C
:103830002389A28861882846FFF7ABFFE1882846E4
:10384000FFF79EFF25E0208804280AD12389A2885B
:1038500061882846FFF753FFE1882846FFF742FFBB
:1038600017E0208808280AD12389A2886188284681
:10387000FFF7FBFEE1882846FFF7EEFE09E023890B
:10388000A28861882846FFF7A6FEE1882846FFF750
:1038900095FE70BD2DE9F04105460C460026012736
:1038A000608808B9022600E00026A088012801D11E
:1038B000022700E001272088A0B92389A288618817
:1038C0002846FFF766FFE1882846FFF759FF23895E
:1038D0003A4631462846FFF712FFE1882846FFF7AF
:1038E00001FF13E02389A28861882846FFF707FFBC
:1038F000E1882846FFF7F6FE23893A4631462846F6
:10390000FFF747FFE1882846FFF73AFFBDE8F0815F
:103910000A884B881A438B881A43CB881A430B8931
:103920001A434B891A438B891A43A0F844207047E5
:103930004FF6FF71818000210180C18041800172BA
:1039400070470021018041808180C18001814181D7
:103950008181C181704700210180418001218180E6
:103960000021C18001817047002101804180818058
:10397000C18001814181818170470000002C01409C
:10398000003401400004004000080040000C0040EA
:1039900021B1028842F00102028004E002884FF661
:1039A000FE731A400280704731B1B0F8442042F4EF
:1039B0000042A0F8442005E0B0F84420C2F30E0213
:1039C000A0F8442070471AB183890B43838102E039
:1039D00083898B43838170478182704741EA020368
:1039E000A0F8483070471AB183890B43838102E005
:1039F00083898B438381704701894FF6F8721140A8
:103A0000018170470A46002101894FF68F731940E2
:103A100011430181704730B504460D4629462046C2
:103A2000FFF7F0FF208940F00700208130BD2DE92D
:103A3000F04104460D4616461F46602D06D13B4612
:103A4000012231462046FFF75AFE05E03B4601229F
:103A500031462046FFF79DFE29462046FFF7D2FF5C
:103A6000208940F007002081BDE8F08130B50C4688
:103A700000210189C9B24FF6FF7505EA03251543F8
:103A800025432943018130BD2DE9F04105460E460D
:103A900017469846002443463A4631462846FFF7E3
:103AA000E5FF2C894FF6F870044044F007044FF608
:103AB0008F70044044F070042C81BDE8F081F0B5B3
:103AC00004460D4616461F463B46324629462046CA
:103AD000FFF7CCFF208940F480402081F0BD0185B4
:103AE000828270470A46002101884FF68F73194081
:103AF000114301807047F0B50C4615461E46002163
:103B0000002200230189028B038C4FF6F87739409D
:103B100021434FF6FC473A4040F201173A434FF633
:103B2000DD773B404FF6FF7707EA06172F433B430D
:103B3000018102830384F0BD0A460021018B4FF608
:103B40008F7319401143018370470A460021018B8E
:103B500048F6FF7319404FF6FF7303EA0223194337
:103B6000018370470A460021818B4FF68F731940FD
:103B70001143818370470A460021818B48F6FF7309
:103B800019404FF6FF7303EA0223194381837047FC
:103B900021B1028842F08002028004E002884FF6E0
:103BA0007F731A400280704721B1828842F004027C
:103BB000828004E082884FF6FB731A40828070474F
:103BC00021B1828842F00802828004E082884FF6A8
:103BD000F7731A408280704721B1828842F0010257
:103BE000828004E082884FF6FE731A40828070471C
:103BF0000A460021018B4FF6F773194011430183E8
:103C000070470A460021018B4FF2FF7319404FF6AF
:103C1000FF7303EA02231943018370470A46002118
:103C2000818B4FF6F77319401143818370470A4621
:103C30000021818B4FF2FF7319404FF6FF7303EAA7
:103C400002231943818370470A460021018B4FF6F6
:103C5000FB7319401143018370470A460021018B11
:103C60004FF6FF3319404FF6FF7303EA022319435F
:103C7000018370470A460021818B4FF6FB73194080
:103C80001143818370470A460021818B4FF6FF3331
:103C900019404FF6FF7303EA0223194381837047EB
:103CA0000A460021018B4FF67F73194011430183AF
:103CB00070470A460021018BC1F30E014FF6FF73D6
:103CC00003EA02231943018370470A460021818BCE
:103CD0004FF67F7319401143818370470A460021D4
:103CE000818BC1F30E014FF6FF7303EA02231943E0
:103CF000818370470A460021018C4FF6FD731940FD
:103D00001143018470470A460021018C4FF6F77376
:103D100019401143018470470A460021018C4FF677
:103D2000DF7319404FF6FF7303EA0213194301844E
:103D300070470A460021018C4FF67F7319404FF6F9
:103D4000FF7303EA02131943018470470A460021F6
:103D5000018C4FF6FF5319404FF6FF7303EA02231D
:103D60001943018470470A460021018C4FF2FF730A
:103D700019404FF6FF7303EA022319430184704789
:103D80000A460021018C4DF6FF7319404FF6FF7370
:103D900003EA023319430184704730B5002301243C
:103DA0008C40A3B2048C9C430484048C02FA01F579
:103DB000ADB22C43048430BD30B5002304248C40C4
:103DC000A3B2048C9C430484048C02FA01F5ADB2C6
:103DD0002C43048430BD70B50346002000241846EF
:103DE000183001258D40ACB21D8CA5431D8409B14E
:103DF000082909D100EB6100056825F07005056010
:103E00000568154305600EE00D1FC5F34E052844F7
:103E1000056825F4E045056005684FF6FF7606EA7B
:103E200002263543056070BD21B1028842F00202CE
:103E3000028004E002884FF6FD731A40028070474A
:103E400021B1028842F00402028004E002884FF6A9
:103E5000FB731A400280704721B1828842F08002D1
:103E6000828004E082884FF67F731A408280704718
:103E700002884FF6F7731A40028002880A430280D4
:103E8000704782884FF68F731A40828082880A4377
:103E90008280704702894FF6F8731A4002810289C6
:103EA0000A430281704702894FF67F731A400281EC
:103EB00002890A4302817047818470478185704777
:103EC000818670470187704781877047A0F840104E
:103ED000704702884FF6FF431A40028002880A4367
:103EE000028070470146888E70470146088F7047F0
:103EF0000146888F70470146B1F84000704701467F
:103F0000888C70470146088D704702460020138A4E
:103F10000B400BB1012000E000207047CA43028231
:103F2000704730B50246002000230024158A05EAB8
:103F30000103958905EA010413B10CB1012000E0E9
:103F4000002030BDCA4302827047000010B504460D
:103F5000FB48844209D101218803FFF79FF8002123
:103F60004FF48040FFF79AF832E0F648844209D1D6
:103F700001214804FFF79FF800214FF40030FFF7BC
:103F80009AF825E0F048844209D101218804FFF71E
:103F900092F800214FF48020FFF78DF818E0EB48ED
:103FA000844209D10121C804FFF785F800214FF4AC
:103FB0000020FFF780F80BE0E548844208D101219A
:103FC0000805FFF778F800214FF48010FFF773F829
:103FD00010BD2DE9F04786B005460E460024A246E6
:103FE00000BFA1460027B08900B100BF2F462C8A30
:103FF0004CF6FF700440F08804432C82AC894EF6E6
:10400000F3100440B08831890843718908430443A0
:10401000AC81AC8A4FF6FF400440B0890443AC82C7
:1040200001A8FEF7B4FFC648874202D1DDF810A010
:1040300001E0DDF80CA0A88900F4004040B10AEBD3
:10404000CA0000EB0A1031684900B0FBF1F807E044
:104050000AEBCA0000EB0A1031688900B0FBF1F8E6
:104060006420B8FBF0F004012009642101FB1089F1
:10407000A88900F4004040B1322000EBC900B0FB39
:10408000F1F000F00700044308E0322000EB0910D3
:104090006421B0FBF1F000F00F0004432C8106B066
:1040A000BDE8F0874FF41651016000218180C18086
:1040B00001810C21418100218181704710B50246A8
:1040C0000020108A4FF2FF0318400B884C882343CE
:1040D0008C882343CC8823431843108210BD0021D1
:1040E000018041808180C180704721B1828942F482
:1040F0000052828104E082894DF6FF731A4082816A
:104100007047F0B50346002400260025002040F645
:104110006A17B94200D100BF1846C1F3421401F03A
:104120001F06012707FA06F5012C01D10C3004E027
:10413000022C01D1103000E014301AB107682F436F
:10414000076002E00768AF430760F0BD1AB1838AD9
:104150000B43838202E0838A8B4383827047028A07
:104160004FF6F0731A400282028A0A4302827047B5
:1041700082894FF2FF731A40828182890A438281C9
:10418000704721B1828942F00202828104E0828973
:104190004FF6FD731A4082817047028A4FF6DF7333
:1041A0001A400282028A0A430282704721B1028ABF
:1041B00042F48042028204E0028A4BF6FF731A4006
:1041C00002827047C1F308028280704701468888E6
:1041D000C0F308007047818941F001018181704777
:1041E000028BD2B20283028B42EA01220283704721
:1041F000028B02F47F420283028B0A4302837047E0
:1042000021B1828A42F02002828204E0828A4FF643
:10421000DF731A408282704721B1828A42F0100215
:10422000828204E0828A4FF6EF731A4082827047DE
:1042300021B1828A42F00802828204E0828A4FF62B
:10424000F7731A408282704721B1828942F400429A
:10425000828103E08289C2F30E028281704721B11C
:10426000828A42F40062828204E0828A4FF2FF7303
:104270001A4082827047828A4FF6FB731A4082820C
:10428000828A0A438282704721B1828A42F0020206
:10429000828204E0828A4FF6FD731A408282704760
:1042A00002460020B1F5007F00D100BF13880B400B
:1042B0000BB1012000E00020704701F40072B2F55C
:1042C000007F00D100BFCA430280704770B502462C
:1042D000002400230025002040F66A16B14200D1D8
:1042E00000BFC1F3421501F01F03012606FA03F3D4
:1042F000012D02D19689334006E0022D02D1168AA3
:10430000334001E0968A33400C12012606FA04F489
:104310001688344013B10CB1012000E0002070BDBC
:1043200010B50022002340F66A14A14200D100BF5C
:104330000A1201249440A3B2DC43048010BD0000A3
:10434000003801400044004000480040004C00405C
:104350000050004030B943F2DB028100A1F1C041BE
:104360000A6005E043F2D2028100A1F1C0410A6077
:104370006FF07042411C8900A1F1C0410A608100C8
:10438000A1F1C041C1F80421704710280AD11821B9
:104390004FF020421166402151664FF0FC3191668A
:1043A000D16610E01821F74A116040214FF02042F9
:1043B000C2F884104FF0FC31F24A083211604FF01D
:1043C0002042C2F88C1070471820EE492031086056
:1043D00000200906C1F8A4004FF0FC30E94928315B
:1043E0000860091D0860091D08607047D0E90112C6
:1043F0001143C26811430269114342691143826942
:104400001143C2691143026A1143426A1143826A2D
:104410001143C26A1143026B114302689200A2F178
:10442000C0421160816808290BD101688900A1F19F
:10443000C041096841F0400201688900A1F1C04112
:104440000A60416B0968426B526841EA0211426B93
:10445000926841EA0221426B928941EA0241426B31
:10446000128A41EA0251426B127D41EA0261426BBB
:10447000926911430268521C9200A2F1C04211607D
:10448000C16AB1F5804F1BD1816B0968826B52689C
:1044900041EA0211826B926841EA0221826B128A20
:1044A00041EA0251826B127D41EA0261826B92699C
:1044B000114302689200A2F1C042C2F8041107E061
:1044C0006FF0704201688900A1F1C041C1F8042178
:1044D000704730B5002100220023446844F00804EE
:1044E00085682C43C5682C4305692C43456944EA1B
:1044F0004524856944EA4531C4692468C5696D6805
:1045000044EA0524C5692D8944EA0544C5692D7B23
:1045100044EA0562046A2468056A6D6844EA052471
:10452000056A2D8944EA0544056A2D7B44EA056342
:104530000468102C05D14FF020442166A266E36682
:1045400008E0904C21604FF02044C4F888208D4C46
:104550000C34236030BD016841F01001426841EA2B
:104560004221826841EA4231864A20321160C168A4
:104570000968C268526841EA0221C268128941EAA8
:104580000241C268127B41EA02617E4A2832116010
:10459000016909680269526841EA022102691289C7
:1045A00041EA02410269127B41EA0261754A2C32FA
:1045B0001160416909684269526841EA0221426911
:1045C000128941EA02414269127B41EA02614FF0DD
:1045D0002042C2F8B0107047002101600221416002
:1045E00000218160C160016141618161C16101623D
:1045F0004FF480514162490081620021C162016330
:104600000F21426B1160426B5160FF21426B916040
:104610000F21426BD160426B1161426B51610021ED
:10462000426B91610F21826B1160826B5160FF219F
:10463000826B91600F21826BD160826B1161826B02
:1046400051610021826B916170471021016000214E
:1046500041608160C160016141618161FC21C26989
:104660001160C2695160C2699160C269D160026A19
:104670001160026A5160026A9160026AD1607047FB
:104680000021016041608160FC21C2681160C26844
:104690005160C2689160C268D160026911600269AC
:1046A0005160026991600269D1604269116042699A
:1046B0005160426991604269D160704751B1820096
:1046C000A2F1C042126842F001038200A2F1C0428E
:1046D000136009E08200A2F1C04212682A4B1A401E
:1046E0008300A3F1C0431A60704799B1102808D124
:1046F0004FF02042126E42F004024FF020431A663F
:104700001DE0204A126842F004024FF02043C3F833
:10471000802014E0102809D14FF02042126E1A4B6D
:10472000DB1E1A404FF020431A6608E0154A126853
:10473000154BDB1E1A404FF02043C3F88020704712
:1047400048B110492031096841F004014FF020427E
:10475000C2F8A01009E00B49203109680A4AD21EAC
:1047600011404FF02042C2F8A0107047B9B1102894
:104770000CD14FF02042126E42F040024FF0204325
:104780001A661FE0800000A0FEFF0F00724A126848
:1047900042F040024FF02043C3F8802012E010287E
:1047A00008D14FF02042126E6C4B1A404FF020435C
:1047B0001A6607E0684A1268684B1A404FF02043B7
:1047C000C3F88020704701460020102903D14FF024
:1047D0002042506F02E0604A14321068704710B5F2
:1047E000F2B1102807D14FF020435B6E0B434FF01E
:1047F0002044636632E0B0F5807F08D1564B1B1D24
:104800001B680B434FF02044C4F8843026E0524B21
:1048100024331B680B434FF02044C4F8A4301DE040
:10482000102807D14FF020435B6E8B434FF020449C
:10483000636613E0B0F5807F08D1474B1B1D1B68F2
:104840008B434FF02044C4F8843007E0424B2433BC
:104850001B688B434FF02044C4F8A43010BD10B542
:10486000024600200023102A03D14FF02044636E3B
:1048700009E0B2F5807F03D1374C241D236802E0A4
:10488000354C2434236803EA01040CB1012000E014
:10489000002010BD102807D14FF02042526E8A43ED
:1048A0004FF020435A6613E0B0F5807F08D12A4AC2
:1048B000121D12688A434FF02043C3F8842007E09A
:1048C000254A243212688A434FF02043C3F8A420BB
:1048D000704770B502460020002300240025102AEE
:1048E00003D14FF02046736E09E0B2F5807F03D10B
:1048F000194E361D336802E0174E2436336803EA3A
:10490000010403EAD10514B10DB1012000E000203B
:1049100070BD102808D14FF02042526E22EAD10219
:104920004FF020435A6615E0B0F5807F09D10A4A5E
:10493000121D126822EAD1024FF02043C3F88420EE
:1049400008E0054A2432126822EAD1024FF02043DF
:10495000C3F8A42070470000800000A0BFFF0F0034
:1049600010B50446BE48844208D101218014FEF7E8
:1049700095FB0021A014FEF791FB16E0B948844294
:1049800008D101210014FEF796FB00212014FEF748
:1049900092FB0AE0B448844207D10121C013FEF71C
:1049A0008AFB0021E013FEF786FB10BD10B5002244
:1049B000028802F441520B884C8823438C8823439D
:1049C000CC8823430C8923434C8923438C8923437C
:1049D000CC8923431A430280838B4FF2FF74234018
:1049E00083830B8A038210BD2DE9F04F85B0054605
:1049F0000C464FF0000902274FF000084FF0010B62
:104A00000026B246A88B4FF240010840A88302203E
:104A10002884B5F81C90A068022801D100BF38E0B6
:104A2000A08810B94FF0010B01E04FF0020B8D4848
:104A3000854200D100E000BF6846FEF7A8FADDF825
:104A400000A0E088B0F5007F0AD14FEA1A2000EB01
:104A500080004000A168B0FBF1F0401D86B20BE081
:104A60004FEA4B10BAFBF0F000EB80004000A16869
:104A7000B0FBF1F0401D86B20A20B6FBF0F606F05E
:104A80000108A6EB0800C0F34F074FF6FF7000EADD
:104A90000828022F01DBFF2F02DD02274FF000085C
:104AA000E08840EA080038432884A088A1890843A8
:104AB000618808432188084340F4006040EA0909FE
:104AC000A5F81C9005B0BDE8F08F00210180418061
:104AD0008180C180018141818181C1810721018261
:104AE00070470021018041808180C1800221816066
:104AF00000218181704721B1028842F0400202808A
:104B000004E002884FF6BF731A400280704721B15B
:104B1000828B42F48062828304E0828B4FF6FF3303
:104B20001A408283704730B5002400230C11012500
:104B3000A540ABB21AB185881D43858002E0858807
:104B40009D43858030BD1AB183880B43838002E08A
:104B500083888B43838070478181704701468889B1
:104B600070474FF6FF62914204D0028842F480728F
:104B7000028004E002884FF6FF631A40028070470B
:104B800021B1828842F00402828004E082884FF6DC
:104B9000FB731A408280704702884FF2FF731A40FD
:104BA000028002880A4302807047018841F48051E4
:104BB0000180704721B1028842F40052028004E073
:104BC00002884DF6FF731A400280704702460020AB
:104BD000012901D0108B00E0908A70470146088AB5
:104BE0007047B1F5804F04D1028842F480420280C0
:104BF00004E002884BF6FF731A40028070470246B9
:104C0000002013890B400BB1012000E00020704709
:104C1000CA4302817047F0B50246002000240023F9
:104C2000002501F00F070126BE40B4B20B1101268A
:104C30009E40B3B2968806EA03051689264016B14F
:104C40000DB1012000E00020F0BD10B5002201F000
:104C50000F040123A3409AB2D343038110BD000087
:104C60000030014000380040003C004010B50446D0
:104C7000FA48844208D101214015FEF70FFA0021BD
:104C80006015FEF70BFA17E0F548844208D10121C0
:104C90000015FEF703FA00212015FEF7FFF90BE0DF
:104CA000F048844208D10121C803FEF7F7F900213A
:104CB0004FF40040FEF7F2F910BD30B50246002077
:104CC00000235068E84C20400D790C6844EA052424
:104CD000204350609068E54C2040D1E902542C43B9
:104CE0004D7944EA450420439060D06A20F4700076
:104CF0000C7C641EE4B2234340EA0350D06230BD12
:104D000000210160017141718160C1600121017464
:104D1000704721B1826842F00102826003E082683C
:104D200022F001028260704721B1826842F48072F1
:104D3000826003E0826822F480728260704710B55E
:104D40000023CBB21AB144681C43446002E04468BB
:104D50009C43446010BD816841F008018160704748
:104D6000014600208A6802F008020AB1012000E032
:104D700000207047816841F004018160704701465E
:104D800000208A6802F004020AB1012000E000203D
:104D9000704721B1826842F4A002826003E0826819
:104DA00022F4A00282607047014600208A6802F463
:104DB00080020AB1012000E00020704710B50A46C9
:104DC00000210023416821F46041531E41EA433130
:104DD000416010BD21B1426842F40062426003E0CC
:104DE000426822F4006242607047F0B504460D4606
:104DF00000200021092D11DDE068A5F10A0606EB6F
:104E00004607072606FA07F18843A5F10A0606EBCE
:104E1000460603FA06F10843E0600CE0206905EB62
:104E20004507072606FA07F1884305EB450603FA0E
:104E300006F108432061072A0FDA606B561E06EB65
:104E400086071F2606FA07F18843561E06EB8606DC
:104E500005FA06F10843606322E00D2A0FDA206BA1
:104E6000D61F06EB86071F2606FA07F18843D61FD2
:104E700006EB860605FA06F10843206310E0E06AB7
:104E8000A2F10D0606EB86071F2606FA07F18843F6
:104E9000A2F10D0606EB860605FA06F10843E0626C
:104EA000F0BD21B1826842F48012826003E0826822
:104EB00022F48012826070470146C86C80B270474D
:104EC00066484C300068704721B1426842F4806205
:104ED000426003E0426822F480624260704721B180
:104EE000426842F48052426003E0426822F48052F9
:104EF000426070470A460021816821F4E041114375
:104F00008160704721B1826842F40042826003E010
:104F1000826822F400428260704721B1826842F4C4
:104F20000212826003E0826822F4021282607047FB
:104F3000014600208A6802F400120AB1012000E054
:104F400000207047F0B504461546002000220026D8
:104F5000092911DDE068A1F10A0707EB470C0727D3
:104F600007FA0CF29043A1F10A0707EB470703FA8F
:104F700007F21043E0600CE0206901EB410C0727C9
:104F800007FA0CF2904301EB410703FA07F21043D2
:104F90002061A06BC0F30156EF1C06F1010CA7EBDA
:104FA0000C0707EB870C1F2707FA0CF29043EF1C46
:104FB00006F1010CA7EB0C0707EB870701FA07F2D4
:104FC0001043A063F0BD10B50A4600210023816B99
:104FD00021F44011531E41EA0351816310BD08B50D
:104FE000002300930090009B0B440093009B1A60E9
:104FF00008BD08B5024600200090009201F128008B
:10500000009B184400900098006880B208BD0A46D2
:1050100000214168164B19401143416070474162BD
:10502000826270470A460021416821F01F01114346
:105030004160704740B109490831096841F40001F5
:10504000064A0832116007E004490831096821F472
:105050000001024A0832116070470000002401403C
:1050600000280140003C0140FFFEF0FFFDF7F1FF8A
:10507000FFFD3FFF0246002013680B400BB10120EB
:1050800000E000207047CA430260704770B50246D6
:105090000020002300240B125568CEB205EA060456
:1050A00015681D4015B10CB1012000E0002070BD55
:1050B00000220A12D3430360704700002DE9FF5F0E
:1050C00007460E4693464FF000083446B146354633
:1050D000B24607B126B94FF0FF3004B0BDE8F09FEB
:1050E0004FF0000837E1781C10F80800192875D235
:1050F000DFE800F0FFFDFC7474FBFAF9F8747474D7
:1051000074F7F6F5F40D4B8B9EAABCCEDF00207829
:10511000F749087008460178F6A002F0C1FEF4488D
:105120000078012818D16420F149C1F80F00C1F8B6
:105130000700C1F80B000846B0F80F00F3490880DB
:10514000EB48B0F80700F14908390880E848B0F8A2
:105150000B00091D088017E00020E549C1F80F0089
:10516000C1F80700C1F80B000846B0F80F00E74986
:105170000880DF48B0F80700E44908390880DC48B7
:10518000B0F80B00091D0880E0E06078D84948704D
:1051900008464178DEA002F083FED5484078012819
:1051A0002FD1E2490870D248D0F8170030B1012859
:1051B0000CD0022813D0032821D118E00020FBF7DF
:1051C000C5FD0020CA49C1F8130019E02420FBF7EF
:1051D000BDFD2420C649C1F8130011E0B5E0482008
:1051E000FBF7B4FD4820C249C1F8130008E06C2069
:1051F000FBF7ACFD6C20BE49C1F8130000E000BF16
:1052000002E00020C9490870A0E0A078B849887081
:1052100008468178C6A002F043FEB5488078012890
:1052200002D1CB49087002E00020C94908708DE026
:10523000D4F80300AE49C1F803000846D0F80310C3
:10524000C4A002F02DFE81E0D4F80700A849C1F8FF
:1052500007000846D0F80710C7A002F021FEA448B6
:10526000B0F80700A949083908806FE0D4F80B00AE
:105270009F49C1F80B000846D0F80B10C4A002F0FB
:105280000FFE9B48B0F80B00A049091F08805DE0A5
:10529000D4F80F009649C1F80F000846D0F80F1057
:1052A000C1A002F0FDFD9248B0F80F0097490880B8
:1052B0004CE0D4F813008E49C1F813000846D0F82A
:1052C0001310BFA002F0ECFD9848007828B9884977
:1052D000B1F8131088B2FBF739FD37E016E028E08B
:1052E00018E00DE00BE009E007E005E003E001E075
:1052F000FFE72BE02AE029E028E027E026E025E090
:1053000099F80010B7A002F0CBFD1FE0B8A002F0A2
:10531000C7FD1BE0A9796A792B79A868CDE900322D
:10532000CDE90210EB78AA782988B6A002F0B8FD82
:105330000CE0BFA002F0B4FDC2A002F0B1FD9AF8EB
:105340000010C4A002F0ACFD00E000BF00BF08F1F7
:10535000010000F0FF08387840453FF7C4AE002058
:10536000BBE670B569480838008864280CD16748E6
:10537000001F0088642807D164480088642803D18E
:1053800001205B49087002E00020594908705F481D
:10539000083800885649C1F807005C48001F00889B
:1053A000C1F80B0059480088C1F80F000021AE4831
:1053B000006804F06BFC0ED8AB48006804F0BEF93E
:1053C0000446AA4AAA4B04F049F804D200204849EE
:1053D000C1F8170036E0A448006804F0AFF90446AD
:1053E000A24AA34B04F074F90ED89F48006804F059
:1053F000A5F904469D4A9F4B04F030F804D20120E1
:105400003B49C1F817001DE09748006804F096F981
:105410000446964A974B04F05BF90FD8924800680F
:1054200004F08CF904464FF03332934B04F016F835
:1054300004D202202E49C1F8170003E003202C49B2
:10544000C1F817008D480088401F00EBC0002849B4
:10545000C1F813008A480078C1F81B008948007819
:10546000C1F81F003A48007801281ED1854800780D
:105470004B2803DC82480078232804DD02201C49E5
:10548000C1F8030017E07F480078322803DB7C482E
:105490000078142804DA01201549C1F803000AE055
:1054A00000201349C1F8030005E01148D0F80300BB
:1054B0000F49C1F8030070BD10B523210C4802F05C
:1054C000D1FE10BD70480068401C6F4908607047ED
:1054D0006D4800687047704700B5FFF7F3FF00BDE7
:1054E00008B5002000900121684600F0FBF808BDD7
:1054F000584500204576743A204556454E545F4144
:105500006C6C5F4C6564202564200A0040040040F8
:105510004576743A204556454E545F6175746F5F09
:105520007261696E202564200A0000007800002066
:105530004576743A204556454E545F6175746F5FE9
:1055400068756D5F74656D202564200A0000000099
:10555000790000204576743A204556454E545F68E0
:10556000616E646C655F68756D69646974795F54B8
:10557000656D702025640A004576743A4556454E9F
:10558000545F5265645F4C65642025640A00000026
:105590004576743A4556454E545F477265656E5F71
:1055A0004C65642025640A004576743A4556454E9C
:1055B000545F426C75655F4C65642025640A000089
:1055C0004576743A4556454E545F77696E646F77F9
:1055D0005F6F70656E5F72616E676C652025640A2F
:1055E00000000000525353492025640A00000000C7
:1055F0005452414E53504152454E545F44415441E0
:10560000200A0000574946495F4E5450203A205B1B
:1056100025642D25642D256420253032643A2530FB
:1056200032643A253032645D5B25645D200A0000F7
:105630004D4F44554C4520494E464F202E2E2E0AA4
:1056400000000000574946204D4F44554C45202E40
:105650002E2E0A006D6F64756C6554797065203A62
:10566000205B25645D200A00180000209A99999912
:105670009999E93F9999F93F333303403C08004039
:105680001C0000201D0000207400002070B505469D
:105690000E4600240DB9601E70BD00241BE0295D7C
:1056A0000F48FEF78FFD00BF40210D48FEF7F8FDC3
:1056B0000028F9D0022C0DD3285DFF280AD15521EE
:1056C0000748FEF77FFD00BF40210548FEF7E8FDD3
:1056D0000028F9D0641CB442E1D33046DCE7000076
:1056E0000048004070B504460D46002624B9F0A0DD
:1056F00002F0D6FB701E70BD2A462146F44802F027
:1057000071FB0646AE4205D0F2A002F0C9FB4FF095
:10571000FF30F0E73046EEE710B504462CB9F4A0B0
:1057200002F0BEFB4FF0FF3010BD00202060606033
:10573000FF20207060700020F6E770B504460D462B
:105740002CB9F6A002F0ACFB4FF0FF3070BD252164
:10575000F84802F087FD2A462146F648801C02F0F0
:105760000AFDF4484738A0F86650012180F8481037
:10577000FFF7AEFEEF49473988660020E6E7F8B547
:1057800005460C4616460DB104B12EB9EAA002F04A
:1057900087FB4FF0FF30F8BD287800F0010098B18A
:1057A00011212278601C81542078401C2070012037
:1057B0006B1C024600210090084602F0D8F908B19F
:1057C000012000E0002030702878C0F3400098B13C
:1057D00012212278601C81542078401C2070012006
:1057E0006B1C024601460090002002F0C0F908B18F
:1057F000012000E0002070702878C0F3800098B18C
:1058000013212278601C81542078401C20700120D4
:105810006B1C024602210090002002F0A8F908B19A
:10582000012000E00020B0702878C0F3C00080B1F3
:1058300014212278601C81542078401C20700120A3
:105840006B1C022203210090002002F090F9C6F8A0
:1058500003002878C0F3001068B115212278601C7D
:1058600081542078401C2070AA780021012002F089
:1058700099F8C6F807002878C0F3401068B11621DF
:105880002278601C81542078401C2070EA78002126
:10589000012002F087F8C6F80B002878C0F38010CA
:1058A00068B117212278601C81542078401C207038
:1058B0002A790021012002F075F8C6F80F00287837
:1058C0000121B1EBD01F0DD118212278601C815429
:1058D0002078401C20706A790021092002F062F8CB
:1058E000C6F81300002056E72DE9FC4104460D469A
:1058F0000026002704B135B99AA002F0D1FA4FF082
:10590000FF30BDE8FC81FFF7E3FD074628782178EA
:10591000884203D09DA002F0C3FA0126687861781E
:10592000884203D09FA002F0BBFA0126A878A17894
:10593000884203D0A1A002F0B3FA0126D5F80300F3
:10594000D4F80310884258D0A3A002F0A9FAD4F8E2
:10595000030020B1012832D002284BD13CE0FCF7F3
:1059600056FFC08800EB800101EBC0001FFA80F8F1
:105970004046FCF761FFFCF74AFFC088C0EBC0005F
:1059800040044FEA10484046FCF756FFFCF73FFF43
:10599000C088C0EB00101FFA80F84046FCF74CFFAF
:1059A0004FF47840FCF742FF002094A120231A46D0
:1059B000CDE90010D8211846FCF72EFE1BE01F2071
:1059C000FCF734FF002090A120231A46CDE90010F7
:1059D000D821FCF721FE0EE04FF6FF70FCF726FF02
:1059E00000208DA120231A46CDE90010D821FCF714
:1059F00013FE00E000BF00BF0126D5F80700D4F871
:105A00000710884203D088A002F04AFA0126D5F890
:105A10000B00D4F80B10884203D089A002F040FAA2
:105A20000126D5F80F00D4F80F10884203D08AA0C1
:105A300002F036FA0126D5F81300D4F81310884284
:105A400003D08BA002F02CFA0126D5F81700D4F869
:105A50001710884228D08FA002F022FA92480078CE
:105A6000012822D1D4F8170030B101280CD0022827
:105A700012D003281AD11BE10020FBF767F90020A0
:105A80008A49C1F813001CE12420FBF75FF92420A8
:105A90008649C1F8130014E14820FBF757F9482064
:105AA0008249C1F813000CE10DE10BE108E10000AF
:105AB0004552523A2067697A507574446174612086
:105AC00062756620697320656D707479200A000024
:105AD000EB4600204552523A204661696C656420CD
